{
  "contractName": "Pool",
  "abi": [
    {
      "inputs": [],
      "payable": false,
      "stateMutability": "nonpayable",
      "type": "constructor"
    },
    {
      "anonymous": false,
      "inputs": [
        {
          "indexed": false,
          "name": "to",
          "type": "address"
        },
        {
          "indexed": false,
          "name": "amount",
          "type": "uint256"
        }
      ],
      "name": "Transfer",
      "type": "event"
    },
    {
      "anonymous": false,
      "inputs": [
        {
          "indexed": false,
          "name": "to",
          "type": "address"
        },
        {
          "indexed": false,
          "name": "amount",
          "type": "uint256"
        }
      ],
      "name": "GetPT",
      "type": "event"
    },
    {
      "anonymous": false,
      "inputs": [
        {
          "indexed": false,
          "name": "sender",
          "type": "address"
        },
        {
          "indexed": false,
          "name": "amt",
          "type": "uint256"
        }
      ],
      "name": "TokenSent",
      "type": "event"
    },
    {
      "anonymous": false,
      "inputs": [
        {
          "indexed": false,
          "name": "candidate",
          "type": "address"
        }
      ],
      "name": "Voted",
      "type": "event"
    },
    {
      "anonymous": false,
      "inputs": [
        {
          "indexed": false,
          "name": "winner",
          "type": "address"
        },
        {
          "indexed": false,
          "name": "poolWon",
          "type": "uint256"
        }
      ],
      "name": "VoteWon",
      "type": "event"
    },
    {
      "anonymous": false,
      "inputs": [],
      "name": "VoteDrawn",
      "type": "event"
    },
    {
      "constant": false,
      "inputs": [],
      "name": "getPT",
      "outputs": [
        {
          "name": "",
          "type": "uint256"
        }
      ],
      "payable": true,
      "stateMutability": "payable",
      "type": "function"
    },
    {
      "constant": false,
      "inputs": [
        {
          "name": "amt",
          "type": "uint256"
        }
      ],
      "name": "sendTokens",
      "outputs": [],
      "payable": false,
      "stateMutability": "nonpayable",
      "type": "function"
    },
    {
      "constant": false,
      "inputs": [
        {
          "name": "candidate",
          "type": "address"
        }
      ],
      "name": "vote",
      "outputs": [],
      "payable": false,
      "stateMutability": "nonpayable",
      "type": "function"
    },
    {
      "constant": false,
      "inputs": [],
      "name": "endVoting",
      "outputs": [
        {
          "name": "",
          "type": "uint256"
        }
      ],
      "payable": false,
      "stateMutability": "nonpayable",
      "type": "function"
    },
    {
      "constant": true,
      "inputs": [],
      "name": "getTotalPool",
      "outputs": [
        {
          "name": "",
          "type": "uint256"
        }
      ],
      "payable": false,
      "stateMutability": "view",
      "type": "function"
    },
    {
      "constant": true,
      "inputs": [
        {
          "name": "user",
          "type": "address"
        }
      ],
      "name": "getTokenBalance",
      "outputs": [
        {
          "name": "",
          "type": "uint256"
        }
      ],
      "payable": false,
      "stateMutability": "view",
      "type": "function"
    },
    {
      "constant": true,
      "inputs": [
        {
          "name": "voter",
          "type": "address"
        }
      ],
      "name": "getVote",
      "outputs": [
        {
          "name": "",
          "type": "address"
        }
      ],
      "payable": false,
      "stateMutability": "view",
      "type": "function"
    },
    {
      "constant": true,
      "inputs": [],
      "name": "getVoterListLength",
      "outputs": [
        {
          "name": "",
          "type": "uint256"
        }
      ],
      "payable": false,
      "stateMutability": "view",
      "type": "function"
    },
    {
      "constant": true,
      "inputs": [
        {
          "name": "candidate",
          "type": "address"
        }
      ],
      "name": "getcandidateVotes",
      "outputs": [
        {
          "name": "",
          "type": "uint256"
        }
      ],
      "payable": false,
      "stateMutability": "view",
      "type": "function"
    },
    {
      "constant": true,
      "inputs": [
        {
          "name": "voter",
          "type": "address"
        }
      ],
      "name": "gettokenWeights",
      "outputs": [
        {
          "name": "",
          "type": "uint256"
        }
      ],
      "payable": false,
      "stateMutability": "view",
      "type": "function"
    }
  ],
  "bytecode": "0x608060405234801561001057600080fd5b506100196100c3565b604051809103906000f080158015610035573d6000803e3d6000fd5b506000806101000a81548173ffffffffffffffffffffffffffffffffffffffff021916908373ffffffffffffffffffffffffffffffffffffffff16021790555033600160006101000a81548173ffffffffffffffffffffffffffffffffffffffff021916908373ffffffffffffffffffffffffffffffffffffffff16021790555060006002819055506100d3565b604051611110806114b783390190565b6113d5806100e26000396000f3fe6080604052600436106100a4576000357c0100000000000000000000000000000000000000000000000000000000900463ffffffff1680632f41943c146100a957806339218917146100c75780633aecd0e31461012c57806359842dac146101915780636dd7d8ea146101bc57806375f4d6771461020d5780638d337b8114610238578063b771c8ca146102c9578063c3403ddf1461032e578063f5c6ca0814610359575b600080fd5b6100b1610394565b6040518082815260200191505060405180910390f35b3480156100d357600080fd5b50610116600480360360208110156100ea57600080fd5b81019080803573ffffffffffffffffffffffffffffffffffffffff1690602001909291905050506105c1565b6040518082815260200191505060405180910390f35b34801561013857600080fd5b5061017b6004803603602081101561014f57600080fd5b81019080803573ffffffffffffffffffffffffffffffffffffffff16906020019092919050505061060a565b6040518082815260200191505060405180910390f35b34801561019d57600080fd5b506101a6610708565b6040518082815260200191505060405180910390f35b3480156101c857600080fd5b5061020b600480360360208110156101df57600080fd5b81019080803573ffffffffffffffffffffffffffffffffffffffff169060200190929190505050610715565b005b34801561021957600080fd5b506102226108fc565b6040518082815260200191505060405180910390f35b34801561024457600080fd5b506102876004803603602081101561025b57600080fd5b81019080803573ffffffffffffffffffffffffffffffffffffffff169060200190929190505050610906565b604051808273ffffffffffffffffffffffffffffffffffffffff1673ffffffffffffffffffffffffffffffffffffffff16815260200191505060405180910390f35b3480156102d557600080fd5b50610318600480360360208110156102ec57600080fd5b81019080803573ffffffffffffffffffffffffffffffffffffffff16906020019092919050505061096f565b6040518082815260200191505060405180910390f35b34801561033a57600080fd5b506103436109b8565b6040518082815260200191505060405180910390f35b34801561036557600080fd5b506103926004803603602081101561037c57600080fd5b810190808035906020019092919050505061104b565b005b6000662386f26fc10000341015151561043b576040517f08c379a00000000000000000000000000000000000000000000000000000000081526004018080602001828103825260218152602001807f4174206c6561737420302e3031455448206e656564656420746f20676574205081526020017f540000000000000000000000000000000000000000000000000000000000000081525060400191505060405180910390fd5b6000662386f26fc100003481151561044f57fe5b0490506000809054906101000a900473ffffffffffffffffffffffffffffffffffffffff1673ffffffffffffffffffffffffffffffffffffffff166340c10f1933836040518363ffffffff167c0100000000000000000000000000000000000000000000000000000000028152600401808373ffffffffffffffffffffffffffffffffffffffff1673ffffffffffffffffffffffffffffffffffffffff16815260200182815260200192505050602060405180830381600087803b15801561051657600080fd5b505af115801561052a573d6000803e3d6000fd5b505050506040513d602081101561054057600080fd5b8101908080519060200190929190505050507f69119575e0fbe5d6a3754bd6fd2464bcd77e80cd1c554f648d56062ba509a19d3382604051808373ffffffffffffffffffffffffffffffffffffffff1673ffffffffffffffffffffffffffffffffffffffff1681526020018281526020019250505060405180910390a15090565b6000600460008373ffffffffffffffffffffffffffffffffffffffff1673ffffffffffffffffffffffffffffffffffffffff168152602001908152602001600020549050919050565b60008060009054906101000a900473ffffffffffffffffffffffffffffffffffffffff1673ffffffffffffffffffffffffffffffffffffffff166370a08231836040518263ffffffff167c0100000000000000000000000000000000000000000000000000000000028152600401808273ffffffffffffffffffffffffffffffffffffffff1673ffffffffffffffffffffffffffffffffffffffff16815260200191505060206040518083038186803b1580156106c657600080fd5b505afa1580156106da573d6000803e3d6000fd5b505050506040513d60208110156106f057600080fd5b81019080805190602001909291905050509050919050565b6000600380549050905090565b600073ffffffffffffffffffffffffffffffffffffffff16600560003373ffffffffffffffffffffffffffffffffffffffff1673ffffffffffffffffffffffffffffffffffffffff16815260200190815260200160002060009054906101000a900473ffffffffffffffffffffffffffffffffffffffff1673ffffffffffffffffffffffffffffffffffffffff16141515610818576040517f08c379a00000000000000000000000000000000000000000000000000000000081526004018080602001828103825260118152602001807f43616e277420766f74652074776963652100000000000000000000000000000081525060200191505060405180910390fd5b80600560003373ffffffffffffffffffffffffffffffffffffffff1673ffffffffffffffffffffffffffffffffffffffff16815260200190815260200160002060006101000a81548173ffffffffffffffffffffffffffffffffffffffff021916908373ffffffffffffffffffffffffffffffffffffffff1602179055507f16a9aa39af49f169911e977347975198c503525f7240d6892a626f0227642fce81604051808273ffffffffffffffffffffffffffffffffffffffff1673ffffffffffffffffffffffffffffffffffffffff16815260200191505060405180910390a150565b6000600254905090565b6000600560008373ffffffffffffffffffffffffffffffffffffffff1673ffffffffffffffffffffffffffffffffffffffff16815260200190815260200160002060009054906101000a900473ffffffffffffffffffffffffffffffffffffffff169050919050565b6000600660008373ffffffffffffffffffffffffffffffffffffffff1673ffffffffffffffffffffffffffffffffffffffff168152602001908152602001600020549050919050565b6000600160009054906101000a900473ffffffffffffffffffffffffffffffffffffffff1673ffffffffffffffffffffffffffffffffffffffff163373ffffffffffffffffffffffffffffffffffffffff16141515610a7f576040517f08c379a000000000000000000000000000000000000000000000000000000000815260040180806020018281038252601f8152602001807f4f6e6c79206368616972706572736f6e2063616e20656e6420766f74696e670081525060200191505060405180910390fd5b600080905060008090505b600380549050811015610c23576000600382815481101515610aa857fe5b9060005260206000200160009054906101000a900473ffffffffffffffffffffffffffffffffffffffff1690506000600560008373ffffffffffffffffffffffffffffffffffffffff1673ffffffffffffffffffffffffffffffffffffffff16815260200190815260200160002060009054906101000a900473ffffffffffffffffffffffffffffffffffffffff169050600460008373ffffffffffffffffffffffffffffffffffffffff1673ffffffffffffffffffffffffffffffffffffffff16815260200190815260200160002054600660008373ffffffffffffffffffffffffffffffffffffffff1673ffffffffffffffffffffffffffffffffffffffff16815260200190815260200160002060008282540192505081905550600460008373ffffffffffffffffffffffffffffffffffffffff1673ffffffffffffffffffffffffffffffffffffffff1681526020019081526020016000205460026000828254019250508190555050508080600101915050610a8a565b5060008090505b600380549050811015610d4e576000600382815481101515610c4857fe5b9060005260206000200160009054906101000a900473ffffffffffffffffffffffffffffffffffffffff16905082600660008373ffffffffffffffffffffffffffffffffffffffff1673ffffffffffffffffffffffffffffffffffffffff168152602001908152602001600020541115610d4057600660008273ffffffffffffffffffffffffffffffffffffffff1673ffffffffffffffffffffffffffffffffffffffff16815260200190815260200160002054925080600760006101000a81548173ffffffffffffffffffffffffffffffffffffffff021916908373ffffffffffffffffffffffffffffffffffffffff1602179055505b508080600101915050610c2a565b5060028054811515610d5c57fe5b04811115610e26577fac23ab813e81ea9c8f3938cb9f046e08e9b3d44a77425bd37faade692aa3412f600760009054906101000a900473ffffffffffffffffffffffffffffffffffffffff16600254604051808373ffffffffffffffffffffffffffffffffffffffff1673ffffffffffffffffffffffffffffffffffffffff1681526020018281526020019250505060405180910390a1610e21600760009054906101000a900473ffffffffffffffffffffffffffffffffffffffff1660025461123a565b610efc565b7f3a49301006e69698d0f0df51a77658ffff3db26a7bd56571fa7d4a5bf3ff40ea60405160405180910390a160008090505b600380549050811015610efa576000600382815481101515610e7657fe5b9060005260206000200160009054906101000a900473ffffffffffffffffffffffffffffffffffffffff169050610eec81600460008473ffffffffffffffffffffffffffffffffffffffff1673ffffffffffffffffffffffffffffffffffffffff1681526020019081526020016000205461123a565b508080600101915050610e58565b505b60008090505b600380549050811015611043576000600382815481101515610f2057fe5b9060005260206000200160009054906101000a900473ffffffffffffffffffffffffffffffffffffffff169050600460008273ffffffffffffffffffffffffffffffffffffffff1673ffffffffffffffffffffffffffffffffffffffff16815260200190815260200160002060009055600560008273ffffffffffffffffffffffffffffffffffffffff1673ffffffffffffffffffffffffffffffffffffffff16815260200190815260200160002060006101000a81549073ffffffffffffffffffffffffffffffffffffffff0219169055600660008273ffffffffffffffffffffffffffffffffffffffff1673ffffffffffffffffffffffffffffffffffffffff16815260200190815260200160002060009055508080600101915050610f02565b508091505090565b6000809054906101000a900473ffffffffffffffffffffffffffffffffffffffff1673ffffffffffffffffffffffffffffffffffffffff166323b872dd3330846040518463ffffffff167c0100000000000000000000000000000000000000000000000000000000028152600401808473ffffffffffffffffffffffffffffffffffffffff1673ffffffffffffffffffffffffffffffffffffffff1681526020018373ffffffffffffffffffffffffffffffffffffffff1673ffffffffffffffffffffffffffffffffffffffff1681526020018281526020019350505050602060405180830381600087803b15801561114357600080fd5b505af1158015611157573d6000803e3d6000fd5b505050506040513d602081101561116d57600080fd5b81019080805190602001909291905050505080600460003373ffffffffffffffffffffffffffffffffffffffff1673ffffffffffffffffffffffffffffffffffffffff168152602001908152602001600020600082825401925050819055507fd4ff88d569a7ad2bfd6b17da9dbe82e2ccc016fd0051e08ff1ad1e6fe8fc9b553382604051808373ffffffffffffffffffffffffffffffffffffffff1673ffffffffffffffffffffffffffffffffffffffff1681526020018281526020019250505060405180910390a150565b6000809054906101000a900473ffffffffffffffffffffffffffffffffffffffff1673ffffffffffffffffffffffffffffffffffffffff1663a9059cbb83836040518363ffffffff167c0100000000000000000000000000000000000000000000000000000000028152600401808373ffffffffffffffffffffffffffffffffffffffff1673ffffffffffffffffffffffffffffffffffffffff16815260200182815260200192505050602060405180830381600087803b1580156112fe57600080fd5b505af1158015611312573d6000803e3d6000fd5b505050506040513d602081101561132857600080fd5b8101908080519060200190929190505050507f69ca02dd4edd7bf0a4abb9ed3b7af3f14778db5d61921c7dc7cd545266326de28282604051808373ffffffffffffffffffffffffffffffffffffffff1673ffffffffffffffffffffffffffffffffffffffff1681526020018281526020019250505060405180910390a1505056fea165627a7a723058208ac848225ee10b6a07e677e5d5a5f5b9d39c7b511d58a04d71c076ee631a69dd0029608060405260008060006101000a81548160ff02191690831515021790555033600060016101000a81548173ffffffffffffffffffffffffffffffffffffffff021916908373ffffffffffffffffffffffffffffffffffffffff16021790555034801561006b57600080fd5b506110958061007b6000396000f3fe6080604052600436106100d0576000357c0100000000000000000000000000000000000000000000000000000000900463ffffffff16806305d2035b146100d557806306fdde0314610104578063095ea7b31461019457806318160ddd1461020757806323b872dd14610232578063313ce567146102c557806340c10f19146102f657806370a08231146103695780637d64bcb4146103ce578063893d20e8146103fd5780638da5cb5b1461045457806395d89b41146104ab578063a9059cbb1461053b578063dd62ed3e146105ae575b600080fd5b3480156100e157600080fd5b506100ea610633565b604051808215151515815260200191505060405180910390f35b34801561011057600080fd5b50610119610645565b6040518080602001828103825283818151815260200191508051906020019080838360005b8381101561015957808201518184015260208101905061013e565b50505050905090810190601f1680156101865780820380516001836020036101000a031916815260200191505b509250505060405180910390f35b3480156101a057600080fd5b506101ed600480360360408110156101b757600080fd5b81019080803573ffffffffffffffffffffffffffffffffffffffff1690602001909291908035906020019092919050505061067e565b604051808215151515815260200191505060405180910390f35b34801561021357600080fd5b5061021c610770565b6040518082815260200191505060405180910390f35b34801561023e57600080fd5b506102ab6004803603606081101561025557600080fd5b81019080803573ffffffffffffffffffffffffffffffffffffffff169060200190929190803573ffffffffffffffffffffffffffffffffffffffff1690602001909291908035906020019092919050505061077a565b604051808215151515815260200191505060405180910390f35b3480156102d157600080fd5b506102da610a08565b604051808260ff1660ff16815260200191505060405180910390f35b34801561030257600080fd5b5061034f6004803603604081101561031957600080fd5b81019080803573ffffffffffffffffffffffffffffffffffffffff16906020019092919080359060200190929190505050610a0d565b604051808215151515815260200191505060405180910390f35b34801561037557600080fd5b506103b86004803603602081101561038c57600080fd5b81019080803573ffffffffffffffffffffffffffffffffffffffff169060200190929190505050610bf3565b6040518082815260200191505060405180910390f35b3480156103da57600080fd5b506103e3610c3c565b604051808215151515815260200191505060405180910390f35b34801561040957600080fd5b50610412610d01565b604051808273ffffffffffffffffffffffffffffffffffffffff1673ffffffffffffffffffffffffffffffffffffffff16815260200191505060405180910390f35b34801561046057600080fd5b50610469610d2a565b604051808273ffffffffffffffffffffffffffffffffffffffff1673ffffffffffffffffffffffffffffffffffffffff16815260200191505060405180910390f35b3480156104b757600080fd5b506104c0610d50565b6040518080602001828103825283818151815260200191508051906020019080838360005b838110156105005780820151818401526020810190506104e5565b50505050905090810190601f16801561052d5780820380516001836020036101000a031916815260200191505b509250505060405180910390f35b34801561054757600080fd5b506105946004803603604081101561055e57600080fd5b81019080803573ffffffffffffffffffffffffffffffffffffffff16906020019092919080359060200190929190505050610d89565b604051808215151515815260200191505060405180910390f35b3480156105ba57600080fd5b5061061d600480360360408110156105d157600080fd5b81019080803573ffffffffffffffffffffffffffffffffffffffff169060200190929190803573ffffffffffffffffffffffffffffffffffffffff169060200190929190505050610fad565b6040518082815260200191505060405180910390f35b6000809054906101000a900460ff1681565b6040805190810160405280600b81526020017f495334333032455243323000000000000000000000000000000000000000000081525081565b600081600160003373ffffffffffffffffffffffffffffffffffffffff1673ffffffffffffffffffffffffffffffffffffffff16815260200190815260200160002060008573ffffffffffffffffffffffffffffffffffffffff1673ffffffffffffffffffffffffffffffffffffffff168152602001908152602001600020819055508273ffffffffffffffffffffffffffffffffffffffff163373ffffffffffffffffffffffffffffffffffffffff167f8c5be1e5ebec7d5bd14f71427d1e84f3dd0314c0f7b2291e5b200ac8c7c3b925846040518082815260200191505060405180910390a36001905092915050565b6000600354905090565b60008073ffffffffffffffffffffffffffffffffffffffff168373ffffffffffffffffffffffffffffffffffffffff16141515156107b757600080fd5b600260008573ffffffffffffffffffffffffffffffffffffffff1673ffffffffffffffffffffffffffffffffffffffff16815260200190815260200160002054821115151561086e576040517f08c379a00000000000000000000000000000000000000000000000000000000081526004018080602001828103825260108152602001807f42616c616e63652046726f6d204c6f770000000000000000000000000000000081525060200191505060405180910390fd5b6108c082600260008773ffffffffffffffffffffffffffffffffffffffff1673ffffffffffffffffffffffffffffffffffffffff1681526020019081526020016000205461103490919063ffffffff16565b600260008673ffffffffffffffffffffffffffffffffffffffff1673ffffffffffffffffffffffffffffffffffffffff1681526020019081526020016000208190555061095582600260008673ffffffffffffffffffffffffffffffffffffffff1673ffffffffffffffffffffffffffffffffffffffff1681526020019081526020016000205461104d90919063ffffffff16565b600260008573ffffffffffffffffffffffffffffffffffffffff1673ffffffffffffffffffffffffffffffffffffffff168152602001908152602001600020819055508273ffffffffffffffffffffffffffffffffffffffff168473ffffffffffffffffffffffffffffffffffffffff167fddf252ad1be2c89b69c2b068fc378daa952ba7f163c4a11628f55a4df523b3ef846040518082815260200191505060405180910390a3600190509392505050565b601281565b60008060019054906101000a900473ffffffffffffffffffffffffffffffffffffffff1673ffffffffffffffffffffffffffffffffffffffff163373ffffffffffffffffffffffffffffffffffffffff16141515610a6a57600080fd5b6000809054906101000a900460ff16151515610a8557600080fd5b610a9a8260035461104d90919063ffffffff16565b600381905550610af282600260008673ffffffffffffffffffffffffffffffffffffffff1673ffffffffffffffffffffffffffffffffffffffff1681526020019081526020016000205461104d90919063ffffffff16565b600260008573ffffffffffffffffffffffffffffffffffffffff1673ffffffffffffffffffffffffffffffffffffffff168152602001908152602001600020819055508273ffffffffffffffffffffffffffffffffffffffff167f0f6798a560793a54c3bcfe86a93cde1e73087d944c0ea20544137d4121396885836040518082815260200191505060405180910390a28273ffffffffffffffffffffffffffffffffffffffff16600073ffffffffffffffffffffffffffffffffffffffff167fddf252ad1be2c89b69c2b068fc378daa952ba7f163c4a11628f55a4df523b3ef846040518082815260200191505060405180910390a36001905092915050565b6000600260008373ffffffffffffffffffffffffffffffffffffffff1673ffffffffffffffffffffffffffffffffffffffff168152602001908152602001600020549050919050565b60008060019054906101000a900473ffffffffffffffffffffffffffffffffffffffff1673ffffffffffffffffffffffffffffffffffffffff163373ffffffffffffffffffffffffffffffffffffffff16141515610c9957600080fd5b6000809054906101000a900460ff16151515610cb457600080fd5b60016000806101000a81548160ff0219169083151502179055507fae5184fba832cb2b1f702aca6117b8d265eaf03ad33eb133f19dde0f5920fa0860405160405180910390a16001905090565b60008060019054906101000a900473ffffffffffffffffffffffffffffffffffffffff16905090565b600060019054906101000a900473ffffffffffffffffffffffffffffffffffffffff1681565b6040805190810160405280600681526020017f495334333032000000000000000000000000000000000000000000000000000081525081565b60008073ffffffffffffffffffffffffffffffffffffffff168373ffffffffffffffffffffffffffffffffffffffff1614151515610dc657600080fd5b600260003373ffffffffffffffffffffffffffffffffffffffff1673ffffffffffffffffffffffffffffffffffffffff168152602001908152602001600020548211151515610e1457600080fd5b610e6682600260003373ffffffffffffffffffffffffffffffffffffffff1673ffffffffffffffffffffffffffffffffffffffff1681526020019081526020016000205461103490919063ffffffff16565b600260003373ffffffffffffffffffffffffffffffffffffffff1673ffffffffffffffffffffffffffffffffffffffff16815260200190815260200160002081905550610efb82600260008673ffffffffffffffffffffffffffffffffffffffff1673ffffffffffffffffffffffffffffffffffffffff1681526020019081526020016000205461104d90919063ffffffff16565b600260008573ffffffffffffffffffffffffffffffffffffffff1673ffffffffffffffffffffffffffffffffffffffff168152602001908152602001600020819055508273ffffffffffffffffffffffffffffffffffffffff163373ffffffffffffffffffffffffffffffffffffffff167fddf252ad1be2c89b69c2b068fc378daa952ba7f163c4a11628f55a4df523b3ef846040518082815260200191505060405180910390a36001905092915050565b6000600160008473ffffffffffffffffffffffffffffffffffffffff1673ffffffffffffffffffffffffffffffffffffffff16815260200190815260200160002060008373ffffffffffffffffffffffffffffffffffffffff1673ffffffffffffffffffffffffffffffffffffffff16815260200190815260200160002054905092915050565b600082821115151561104257fe5b818303905092915050565b6000818301905082811015151561106057fe5b8090509291505056fea165627a7a7230582057b0d365680d013ee3651e2a0c0a4574f032a012ea0cffdb7fade9b0a20af5360029",
  "source": "pragma solidity >= 0.5.0;\n\nimport './ERC20.sol';\n\ncontract Pool {\n    ERC20 erc20instance;\n    address chairperson;\n\n    uint256 totalPool; //total amount of PTs in the pool\n    address[] voterList; //List of addresses that sent PT to the pool\n    mapping(address => uint256) tokenWeights; // How much weight does each voter have\n    mapping(address => address) votingChoice; // Who has each voter voted for?\n    mapping(address => uint256) candidateVotes; // How much weight has each address got (used to decide winner)?\n    address winner;\n\n    constructor() public {\n        erc20instance = new ERC20();\n        chairperson = msg.sender;\n\n        totalPool = 0;\n    }\n\n    event Transfer(address to, uint256 amount); //event of transfer money from Pool contract to an address\n    event GetPT(address to, uint256 amount); //event of an address gets PT with Eth\n    event TokenSent(address sender, uint256 amt); //event of an address sends PT to Pool and gets votes\n    event Voted(address candidate); //event of voting for a candidate\n    event VoteWon(address winner, uint256 poolWon); //event of winning the voting\n    event VoteDrawn(); //event of no one wins the voting\n\n    function getPT() public payable returns(uint256) { //an address gets PT with Eth\n        require(msg.value >= 1E16, \"At least 0.01ETH needed to get PT\");\n        uint256 val = msg.value/ 1E16;\n        erc20instance.mint(msg.sender, val);\n        emit GetPT(msg.sender, val);\n    }\n\n// no changes needed before this point\n\n    function transferPT(address to, uint256 amount) private { //transfer PT from Pool contract to an address, will be called within the contract when voting ends to transfer the PT in the pool to the winner or return the PT\n        erc20instance.transfer(to, amount);\n        emit Transfer(to, amount);\n    }\n\n    function sendTokens(uint256 amt) public { //send PT to the pool, grants sender voting weights\n        erc20instance.transferFrom(msg.sender, address(this), amt);\n        tokenWeights[msg.sender] += amt;\n        emit TokenSent(msg.sender, amt);\n    }\n\n\n    function vote(address candidate) public { //vote for a candidate\n        // Return an error saying \"Can't vote twice!\" if a voter tries to vote twice\n        require(votingChoice[msg.sender] == address(0), \"Can't vote twice!\");\n        votingChoice[msg.sender] = candidate;\n        emit Voted(candidate);\n    }\n\n\n    function endVoting() public returns(uint256) {\n        //Return an error saying \"Only chairperson can end voting\" if non-chair tries to end voting\n        require(msg.sender == chairperson, \"Only chairperson can end voting\");\n        uint256 maxvotes = 0;\n\n\n        // Compute votes for each candidate and get total votes\n        for(uint256 i = 0; i < voterList.length; i++) {\n            address curr = voterList[i];\n            address choice = votingChoice[curr];\n\n            candidateVotes[choice] += tokenWeights[curr];\n            totalPool += tokenWeights[curr];\n        }\n\n        // Find candidate with highest votes\n        for(uint256 i = 0; i < voterList.length; i++) {\n            address curr = voterList[i];\n            \n            if(candidateVotes[curr] > maxvotes) {\n                maxvotes = candidateVotes[curr];\n                winner = curr;\n            }\n        }\n\n\n        // If % exceeds 50% then transfer all PTs to winner\n        if(maxvotes > totalPool/2) {\n            emit VoteWon(winner, totalPool);\n            transferPT(winner, totalPool);\n            \n        } else {\n            // Vote draw, emit VoteDrawn, return PTs\n            emit VoteDrawn();\n            for(uint256 i = 0; i < voterList.length; i++) {\n                address curr = voterList[i];\n                transferPT(curr, tokenWeights[curr]);\n            }\n            \n        }\n\n// no changes needed after this point\n\n        // Reset all mappings --> allows multiple voting cycles\n        for(uint k=0; k<voterList.length; k++) {\n            address add = voterList[k];\n            delete tokenWeights[add];\n            delete votingChoice[add];\n            delete candidateVotes[add];\n        }\n        \n\n        return maxvotes;\n\n    }\n\n//getter functions for testing\n    function getTotalPool() public view returns(uint256) {\n        return totalPool;\n    }\n\n    function getTokenBalance(address user) public view returns(uint256) {\n        return erc20instance.balanceOf(user);\n    }\n\n    function getVote(address voter) public view returns(address) {\n        return votingChoice[voter];\n    }\n\n    function getVoterListLength() public view returns (uint256) {\n        return voterList.length;\n    }\n\n    function getcandidateVotes(address candidate) public view returns (uint256) {\n        return candidateVotes[candidate];\n    }\n\n    function gettokenWeights(address voter) public view returns(uint256) {\n        return tokenWeights[voter];\n    }\n\n\n}",
  "sourcePath": "/home/rizemon/Desktop/is4302-midterm/contracts/Pool.sol",
  "compiler": {
    "name": "solc",
    "version": "0.5.0+commit.1d4f565a.Emscripten.clang"
  },
  "schemaVersion": "3.4.5",
  "updatedAt": "2022-03-04T06:37:21.352Z",
  "networkType": "ethereum",
  "devdoc": {
    "methods": {}
  },
  "userdoc": {
    "methods": {}
  }
}